:10000000802F00202904000071040000710400000A
:100010007104000071040000710400000000000081
:10002000000000000000000000000000710400005B
:10003000710400000000000071040000AD4E0000DB
:1000400071040000710400007104000071040000DC
:1000500071040000710400007104000071040000CC
:1000600071040000710400007104000071040000BC
:1000700071040000710400007104000071040000AC
:1003F000710400007104000071040000FFFFFFFFA2
:10040000FFFFFFFFFFFFFFFFFFFFFFFFFE7FFFFF7D
:10041000C487000029040000000000000000006400
:10042000697361626C65640072B64FF000014FF051
:1004300000024FF000034FF000044FF000054FF0B2
:1004400000064FF00007B846B946BA46BB46BC4660
:1004500004488047044885460448804762B600F057
:100460008DF8FEE711050000802F002075040000C4
:10047000FFF7FEBF1749184A914208B503D0521A38
:10048000164806F0A5FB1649164A914203D0521AA7
:10049000154806F09DFB1548154A904203D0121AE4
:1004A000002106F0BDFB1349134A914203D0521AB2
:1004B000124806F08DFB124B12498B4207D0124AAC
:1004C000920804D01846920006F082FB03460F4AB9
:1004D000136008BDD88100003487000000C4FF1FEE
:1004E00034870000C487000060C9FF1F000000209F
:1004F0005C250020C4870000C487000000000020A5
:1005000000C0FF1F000000000004000008ED00E034
:100510004FF0E02210B4D2F8881D0F4B0F4C10485A
:1005200041F47001C2F8881DD2F8341F21F08041D7
:10053000C2F8341F5C6042F220114FF6FF725C6813
:1005400019609A60D0F800385DF8044B43F4F80362
:10055000C0F80038704700BF0020054020C528D9EA
:1005600000D000404FF0E021034BD1F80C2D92B2A7
:100570001343C1F80C3D70470400FA0500F024B89D
:10058000704700BF012808B516D002281AD102F022
:10059000BFFC02F099FC00F085FD00F0D3F804F0F8
:1005A00019F902F0AFFC012000F092FA00F0D8FB3C
:1005B000BDE8084000F0CEB902F0AAFCBDE8084052
:1005C00000F0C8B908BD00BF08B5234CFFF7D8FF3D
:1005D0000123237000F0BCF902F084FA00B1207806
:1005E000207002F09BFA00B12078207002F08AFCA3
:1005F00000B12078207002F057FC00B12078207004
:1006000002F024FA00B12078207000F065F800B103
:100610002078207000F05AF800B12078207000F0A7
:100620004FF800B12078207000F046FE00F0B0FDD9
:1006300000F094F902F068FC63680133636007F02E
:100640000BF800F04FFE00F0DFFD00F08FF900F036
:10065000FDFB02F05BFCEFE70000002003282DE922
:10066000F84303D100252846BDE8F883124D00EB7E
:10067000800305EB830504462F7B00F03BFBA96854
:1006800006460E4802F0B8F90546204600F0EAFAA0
:100690008046204600F0FEFA8146204600F012FB1C
:1006A000B742DFD1002DDED048EA09050543EDB29F
:1006B000B5FA85F56D09D6E7A076000010040000B4
:1006C000014800F0FBB900BF8C760000014800F043
:1006D0002DBC00BF20C4FF1F00F008B8024A5378A9
:1006E00003F07F03537070470000024070B5124E54
:1006F000124D86B01C21301D04F054FB0FCD01AC0F
:100700000FC42B682360311D01A804F065F8021E98
:100710000CBF0124002402D0204606B070BD084959
:10072000122006F015FA122006F024FA01232046C2
:10073000337006B070BD00BF08020020687600006C
:10074000DD060000704700BF70B50E4D2B780BB969
:10075000002070BD20F47F6424F00F04064604F0EE
:1007600039F8281D214600234FF4805204F066F822
:10077000054604F02DF8002DEAD1A01B00F58050AD
:1007800070BD00BF080200202DE9F04F85B011B107
:10079000284C277827B90027384605B0BDE8F08FE8
:1007A000D4E9015CA84200EB02063BD36544AE42AB
:1007B00038D8002AF0D0204EDFF880B00397894661
:1007C0009046824600251F464FF40071A8EB0500B5
:1007D00004F0D0FA4FF400720446FF21304604F0D2
:1007E000E7FA234609EB05024FF40071304604F0A6
:1007F000F7FA14F007031CBF0834E41A03F0EAFF09
:1008000022460AEB050100973346584604F0BAF831
:100810002544044603F0DCFF002CBCD1A845D3D806
:10082000039FB9E7E568A842B5D324692544AE42E1
:10083000B1D8BEE708020020080000200C0200200A
:100840002DE9F04F85B0002945D0244B93F800B036
:10085000BBF1000F35D00025039592B3204E88469A
:100860001746824603F104094FF40071781B04F027
:1008700081FA4FF400720446FF21304604F098FAE2
:10088000234608EB05024FF40071304604F0A8FA45
:1008900014F007031CBF0834E41A03F09BFF012384
:1008A00003AACDE900230AEB050122463346484658
:1008B00004F034F92544044603F08AFF2CB9AF4212
:1008C000D2D8584605B0BDE8F08F4FF0000B58461F
:1008D00005B0BDE8F08F8B46F3E700BF08020020AB
:1008E00008000020184B2DE9F04193F80080B8F182
:1008F000000F25D0461820F47F64C6F30B0324F0C4
:100900000F042BB126F47F6626F00F0606F58056FD
:10091000B44213D20D4F01E0B44211D203F05AFF9A
:10092000214600234FF48072384603F0F3FF05465A
:1009300004F5805403F04CFF002DEDD04FF000087B
:100940004046BDE8F08100BF080200200C020020F4
:10095000704700BF08B5FFF705FEFEE708B500F0D9
:1009600057FFBDE8084001F0EFBD00BF70B5214C56
:1009700082B000F04DFF637B054653B9237BBBB9C2
:10098000A26972BB2846002102B0BDE8704001F0A8
:1009900005BE01F06FFE2369C01AB0F57A7FEDD372
:1009A0000120FFF7EFFD00236373237B002BE7D0CB
:1009B00001F060FE6369C01AB0F5FA7FE0D3D4E9B4
:1009C00001132068C91A1844FFF7BEFED4E90123B9
:1009D00003449342A36001D20028D1D100232373A2
:1009E000CEE70026009633460349284601F032FE42
:1009F000A661C7E7280200204402002008B501F0E4
:100A000039FE024B012218615A7308BD28020020EA
:100A100050B140F20223994206D810B50B4CA3699D
:100A20002BB10021084610BD0021084670470B4637
:100A30001A46014604F11C00A36106F0C9F801F052
:100A400019FE0121C4F82002084610BD280200202A
:100A5000014BD3F8200270472802002008B500F0AF
:100A6000D7FE01F003FE10F1FF3018BF012008BDD2
:100A7000F8B5084C257B0DB10020F8BD0E460746A1
:100A800001F0F8FD01236061C4E90076A5602373DD
:100A90001846F8BD2802002008B5044AFFF722FFD7
:100AA00018B1034B187B80F0010008BD61C9FF1F1E
:100AB0002802002040F20220704700BF034618B110
:100AC000024A012013607047704700BF4C040020A9
:100AD000084B1A684AB15168814206D912685421FC
:100AE00001FB0023DA6C12B110470320704793F822
:100AF000500070474C04002070B5134B82B01A6848
:100B00004FF0FF330193DAB1D168814218D991686F
:100B1000156800EB800080000C185426227B06FB31
:100B20000252556825B10958D4E90120A847034667
:100B300004210DEB0100019304F00AF902B070BD2D
:100B4000184602B070BD00BF4C0400202DE9F04FE4
:100B50002A4D2B6883B01BB1D9688142044603D863
:100B6000002003B0BDE8F08F00EB8007D3F80880C9
:100B7000D3F800A0BF0008EB07094FF0540B99F819
:100B80000C600BFB06F6FFF7B7FF5AF80620019042
:100B90005644002AE4D0204690470028E0D0019B2C
:100BA0000133DDD02A6882B1D3689C4222D2916899
:100BB0001268C819037B0BFB032BDBF80C30DBB18D
:100BC000D0E90120C95998470246D9F8101058F8C1
:100BD0000730B468194444B1094B0020A047019B79
:100BE000C01AB0FA80F04009BBE72046044B04F07D
:100BF00009F8F4E70022E8E71A46E6E74C0400208B
:100C000061C9FF1F0A4B1B6883B1DA6882420DD9A4
:100C10009A68196800EB800002EB80005422037B85
:100C2000806802FB03131B6903B11847002070475B
:100C30004C0400200A4B1B6883B1DA6882420DD94C
:100C40009A68196800EB800002EB80005422037B55
:100C500002FB03135B690BB18068184700207047E3
:100C60004C0400200A4B1B6883B1DA6882420DD91C
:100C70009A68196800EB800002EB80005422037B25
:100C800002FB03139B690BB1806818470020704773
:100C90004C0400200A4B1B6883B1DA6882420DD9EC
:100CA0009A68196800EB800002EB80005422037BF5
:100CB00002FB0313DB690BB1806818470020704703
:100CC0004C0400200A4B1B6883B1DA6882420DD9BC
:100CD0009A68196800EB800002EB80005422037BC5
:100CE00002FB03135B6A0BB1806818470020704752
:100CF0004C0400200A4B1B6883B1DA6882420DD98C
:100D00009A68196800EB800002EB80005422037B94
:100D100002FB03139B6A0BB18068184706207047DB
:100D20004C0400200D4B1B68A3B1DA68824211D934
:100D300010B481B19A681C6800EB800002EB80005F
:100D40005422037B02FB0343DB6A23B180685DF816
:100D5000044B184770475DF8044B70474C04002063
:100D60000A4B1B6883B1DA6882420DD99A68196808
:100D700000EB800002EB80005422037B02FB031394
:100D8000DB6B0BB180681847704700BF4C04002034
:100D9000F8B51D4C22685AB305465368107C83424F
:100DA0000F4627D91168542303FB0013D96C19B3DC
:100DB0008847226800EB80008000D2E902361844A0
:100DC000447BFEB12F4404330320002253F8041C5B
:100DD0008D4203D31968B94228BFD0B2013296427E
:100DE00003F11403F2D124FA00F000F00100F8BD81
:100DF0001046F8BD3C20E0E793F8500000EB80007F
:100E00008000DAE70320EEE74C0400200E4B1B685D
:100E1000A3B1DA688A4211D910B488B19A681C6803
:100E200001EB810102EB810154220B7B02FB0343A6
:100E30009B6C2BB189685DF8044B18470020704704
:100E400000205DF8044B70474C04002008B50348AF
:100E500005F05CFFBDE8084001F00EBC1079000011
:100E60002DE9F047304ED6F8F87186B0BC68002303
:100E7000CDE90133CDE90333059384B13D688A465A
:100E800069688A4218BFAE4604D148E0DEF8041013
:100E90008A4207D001339C420EF1200EF6D106B0F3
:100EA000BDE8F087DBB24C244FEA431804FB03F49F
:100EB0009C46454406EB04092D787B6803EBC5038B
:100EC0005B6893F838308342E9D1BAF1000FE6D17C
:100ED0004FF04C0A0AFB0C6A0746DAF804309AF81D
:100EE00048000193154603F03DFC04F108029AF80E
:100EF00048308DF80E003244082104A803F070FF3A
:100F00004A46E9B2384602F089FAD6F8F8311B6849
:100F10004344DB69002BC2D001A89847BFE71C46B9
:100F20009C469846B146C7E7500400202DE9F0479B
:100F30005A4C84B0C4F8F801002876D042680346C1
:100F4000002A72D0016800296FD0C068002800F024
:100F50009C8004F1E4060127002500E05A6802EBBA
:100F6000C5023146526892F8380002F05FF8D4F8B2
:100F7000F831DA68002805F1010518BF002795420D
:100F800006F58A76EAD39968002900F0848019680A
:100F90000025A8464FF001094FF04C0A06E0D4F8AE
:100FA000F8319A68013595423ED219686A018E1867
:100FB000307A0128F3D18A5C5B68CDF8048003EBBA
:100FC000C203CDF808805B68CDF80C80B27A93F844
:100FD000380096F809C0B3693179029201AA8DF8F8
:100FE00004C002F0E9F90AFB0543D4F8F82110BB6C
:100FF00096F800E0506896F804C000EBCE001A4660
:10100000406890F8386061463046B9F1000F1BD057
:1010100002F004FAD4F8F8319A680135B0FA80F990
:1010200095424FEA5919C0D3B7B90020C4F8F80166
:1010300004B0BDE8F0873178526896F804C002EB3E
:10104000C102526892F838601A46614630464FF045
:10105000000902F0E3F9A2E7B9F1000FE5D0DA6880
:101060008AB10F4E00255B6803EBC50300225B6865
:10107000314693F8380002F093FAD4F8F831DA6880
:1010800001359542EFD30120D2E79A680127002A63
:101090007FF47EAFF7E7002FC7D0E1E750040020D0
:1010A000610E000038B50B4DD5F8F83183B1DA6820
:1010B00072B100245B6803EBC40301345B6893F8EE
:1010C000380002F0E7F9D5F8F831DA689442F1D344
:1010D00038BD00BF500400201D4BD3F8F83143B396
:1010E0009A68904225D221B3D3E9002340012DE92B
:1010F000F0410D46115C2E68AC7A03EBC10310443D
:101100005B6890F8048093F8387090F809C086B056
:10111000384604944146002403AA334603940594B8
:101120008DF80CC002F0D4F828B1204606B0BDE816
:10113000F081002070470C350095334603AA4146E4
:10114000384602F0E1F8B0FA80F04009EEE700BF5F
:101150005004002008B50D4BD3F8F83113B19A684C
:10116000904201D3002008BDD3E900234001115C67
:1011700003EBC10310445B68017993F8380002F077
:10118000FDF9023818BF012008BD00BF500400203F
:1011900030B5A9B09822002102A805F041FD40F227
:1011A000227300200593FFF793FC154D002305F1F2
:1011B000080401466846ADF804300093FFF726FEA8
:1011C00002A9204603F056FD2046012103F06EFDE2
:1011D0006946204603F06EFD204605F2654103F0A6
:1011E00071FD0221074801F08BFA2146024605F500
:1011F0008B6001F0E3FA012385F8643429B030BD37
:1012000050060020B07900002DE9F047274C94F8F3
:101210006434A2B013B922B0BDE8F08701F02AFA15
:101220002368C31AB3F5FA7F8146F4D3DFF884A0AC
:10123000002504F108080821EEB2684603F0B2FD6B
:101240003046FFF745FC69460746FFF76BFD314620
:101250006A46404603F040FD3846FFF74DFC07461E
:101260007B1C4FF0800102A816D003F09BFD3A468C
:10127000802102A803F050FD013502AA3146404604
:1012800003F038FD042DD6D1094801F0ADFAC4F8B9
:10129000009022B0BDE8F087314601355246404605
:1012A00003F028FD042DC6D1EEE700BF5006002054
:1012B000A80A00203079000010B5094C402304F141
:1012C00020010922204601F025FE00F0C1F8C4F8F3
:1012D000600202F007FD012384F8643210BD00BFF4
:1012E000380B002038B5074C94F864324BB12546D2
:1012F000D4F8600202F00EFD284601F08DFE0028B1
:10130000F6D038BD380B002030B51A4D95F8643250
:1013100089B0D3B1C8B10446002301A82146CDE964
:1013200005338DF81C3003F027FAD5F860321869C0
:101330001A7E039093F820308DF8102001A903A89D
:101340008DF8113002F036FF08B109B030BD082128
:10135000A07A03F017FD04F10C01034602460DF1DB
:1013600015008DF8143005F033FC05A9284601F06E
:10137000EBFDEAE7380B0020F0B585B048B11E4E12
:10138000D6F8604214B196F8644234B9204605B0EC
:10139000F0BD0446204605B0F0BD00278772054623
:1013A00001A93046CDE901778DF80C7001F002FEFD
:1013B00004460028EAD008219DF8040003F0E2FC6E
:1013C000D6F860321A7E93F820101B692B6002F069
:1013D0000F0200F00F0061F30412AF600346EA72DF
:1013E000A8726F60C5E9037705F10C000DF10502E5
:1013F000082103F0F5FCC9E7380B0020084B10B5B5
:1014000093F864423CB140B10A460146D3F8600209
:10141000002302F089FC204610BD0446204610BD82
:10142000380B00200120FFF795BE00BF022900D035
:101430007047104619460022FFF7EABA0846FFF740
:101440009BBF00BF084611B10120FFF745BE7047A2
:101450000048704730C4FF1F013801288CBF0020AE
:101460000120704701207047A0F10100B0FA80F020
:1014700040097047B0FA80F040097047012070477A
:1014800001207047B0F5704F04D0B0F57F4F01D008
:1014900000207047A1F10200B0FA80F040097047C7
:1014A000B0F5704F04D0B0F57F4F01D000207047E9
:1014B000A1F10100B0FA80F040097047B0F5704F1B
:1014C00004D0B0F57F4F01D000207047A2F1010099
:1014D000B0FA80F040097047B0F5704F04D0B0F515
:1014E0007F4F01D0002070471078023801288CBF50
:1014F00000200120704700BF11461A46014BFFF73C
:1015000043B900BF61C9FF1F11461A46014BFFF7DF
:1015100097B900BF61C9FF1FFFF7CCBA1146FFF7AB
:1015200037BC00BF70B582B00C461646FFF7D0FA44
:101530000546FFF7DFFB062801D102B070BD01238D
:10154000607023702846FFF75DFB40B302880221DC
:10155000601803F0F3FB2846FFF76CFB2071284668
:10156000FFF780FB60712846FFF794FBA0712846C7
:10157000FFF7A8FB0821E071684603F013FC6946F9
:101580002846FFF7CFFBBDF804509DF806100098E1
:10159000A0600F22A581A173326002B070BD024627
:1015A000D5E700BF08B501F065F8054B5B6840F66C
:1015B000B732C01A90428CBF0020012008BD00BF86
:1015C000EC23002008B501F055F8014B586008BD28
:1015D000EC23002008B501F04DF8014B186008BD60
:1015E000EC23002008B501F045F8054B1B6840F6D8
:1015F000B732C01A904294BF0020012008BD00BF3E
:10160000EC2300202DE9F041804601F033F8174D1E
:10161000174F2B682875020A6A73020CEA73190ABD
:101620001A0C85F84030000E1B0E85F86C0085F80A
:101630007B1085F84B2085F82A302C1D05F5827625
:1016400008353B464FF480722946002003F0DAFA51
:1016500044F8040FB442F4D140464FF48072054977
:1016600005F0B6FA4FF48070BDE8F081EC2300205D
:1016700061C9FF1FF4230020FFF7C0B908B510B1FE
:10168000FFF7BCFE012008BDB2F5807F01D000202D
:1016900070470228FBD1064B91F8FF0093F8073101
:1016A0000133DBB2C01AB0FA80F04009704700BFC6
:1016B000EC23002070B506999DF81050044605985B
:1016C000164603F06FFBB4F5704F0ED0B4F57F4FA4
:1016D00008D13378022B25D03123079901220A60E3
:1016E000184670BD3123184670BD012D01D012235C
:1016F000F3E73478022CEFD12846FFF7E9F90646E4
:101700002046FFF7E5F905463046FFF71FFA044685
:101710002846FFF71BFA059B002C08BF04461C70E7
:101720000023DAE7012D0BD0032DE0D14FF4403137
:101730004FF48030FFF7B0F9059A00231070CCE722
:101740004FF440314FF48030FFF792F9002814BF76
:1017500000231023C1E700BF01207047012070471C
:1017600038B51C464FF283130022984222600D4682
:101770001FD011D84FF28113984238D040D84FF281
:1017800080139842104606D12246FFF7CBFE206810
:10179000003018BF012038BD4FF28613984216D092
:1017A000B0F57F4F1BD04FF2841398421DD01046E6
:1017B00038BD1046FFF78CF9FFF79EF90421024669
:1017C000284603F0A9FA04232360012038BD0F48FE
:1017D00000F04CFF012328701846236038BD022218
:1017E00004230A600120236038BD0120E2E722467D
:1017F0000120FFF797FE2068003018BF012038BD98
:1018000001230A701846236038BD00BF08C5FF1FBA
:101810000048704708C5FF1F002900F0BA802DE975
:10182000F04F0D468FB09B46924604460E78002A34
:1018300056D0A6F11003772B4BD8DFE803F03C3CE1
:101840004A4A3C4A4A4A4A3C4A4A4A4A4A4A4A4A14
:101850003C3C3C4A4A3C3C3C3C4A3C4A3C3C4A3C82
:101860004A4A3C3C3C3C3C4A4A4A4A3C3C4A4A4A3A
:101870004A4A4A4A4A4A4A4A4A4A4A4A4A4A4A4AC8
:101880004A4A4A4A4A4A4A4A4A4A4A4A4A4A4A4AB8
:101890004A4A4A4A4A4A4A4A4A4A4A4A4A4A4A4AA8
:1018A0004A4A4A4A4A4A4A4A4A4A4A4A4A4A4A4A98
:1018B0004A3C3C3C3C3CDBB2974A12F80390B9F1FD
:1018C000000F25D1BBF1000F65D001200FB0BDE89E
:1018D000F08FBBF1000FF8D103684FF0100804E05F
:1018E000002BF2D103684FF013087F221A7023688F
:1018F0005E702268032382F802801946C4F8083219
:10190000636B2068189A984701200FB0BDE8F08FEC
:10191000406994F8C07198B1D4F810C0002202EB6D
:101920004203022F0CEB830311D1197801299E4643
:1019300001D0022917D00132904203F10C03F4D8F0
:10194000BBF1000FC1D123684FF07F08CDE71978B4
:1019500001299E4607D08F4205D00132904203F103
:101960000C03F4D8ECE7DEF8081071B1DEF80430AF
:1019700093F800E0B64512D00139194403E013F89A
:1019800001EFB6450BD09942F9D101328242C6D35C
:10199000D6E70B78FFDE03684FF01108A5E7E7698B
:1019A00094F800E23FB3D4F818C0002000EB4002E6
:1019B0000CEB82031CF822205AB1964509D0194637
:1019C0000130B84217D20A7B0C3312B19645194642
:1019D000F6D1996861B15B681A78B24213D00139C7
:1019E000194403E013F8012FB2420CD09942F9D107
:1019F0000130B842DAD3BBF1000F7FF466AF236841
:101A00004FF0330871E7D4E9000103F0CBF900236C
:101A1000C4F8083295F80080A8F11003772B00F283
:101A2000A583DFE813F06A033403A303A3032E03A3
:101A3000A303A303A303A3032E03A303A303A303EB
:101A4000A303A303A303A303A303BE012E032E0337
:101A5000A303A303F5022E032E032E03A3032E03D9
:101A6000A3032E032E03A3034102A303A3037B00BE
:101A70002E03620189012E03A303A303A303A3037F
:101A80002E039203A303A303A303A303A303A303AC
:101A9000A303A303A303A303A303A303A303A30316
:101AA000A303A303A303A303A303A303A303A30306
:101AB000A303A303A303A303A303A303A303A303F6
:101AC000A303A303A303A303A303A303A303A303E6
:101AD000A303A303A303A303A303A303A303A303D6
:101AE000A303A303A303A303A303A303A303A303C6
:101AF000A303A303A303A303A303A303A303A303B6
:101B0000A303A303A303A303A303A3032E032E038F
:101B10002E032E032E0300BFC4790000BAF1020F7A
:101B200040F23883D4F85031002B00F01F83D4F8F2
:101B30005421002A00F01A83D4F86021002A00F012
:101B4000158394F8F421002A40F0C283AF7895F809
:101B50000180A1683A09404608929847089907F021
:101B60000F07CB195FFA8AF20333934240F01283D6
:101B7000002800F02A83042900F22783042F00F2B2
:101B8000248384F8F781002F00F0BA84E9780022DA
:101B9000012FCDE9061220D095F804800B0E48EAFB
:101BA0000122022FCDE9062317D0DDE906896A79E3
:101BB0004B46190241EA186142EA0823042FCDE995
:101BC00006310AD1DDE90689AA794B46190241EAB4
:101BD000186142EA0823CDE906310898002800F090
:101BE0007E843D44012895F803804FF0000918D009
:101BF00029794FEA1863022841EA0828994610D04B
:101C00004FEA09216A7941EA1861042842EA082862
:101C1000894606D10B02A87943EA1863994640EA3F
:101C20000828A3680093D4F8545142464B46DDE996
:101C30000601A847002800F0C882DDE90623C4E9B0
:101C40007689C4E97423C4E97A23C4E97889D4F88D
:101C50006031A06898476368052B40F2878223684B
:101C600040225A702368020E9A702368020CDA70C0
:101C70002368020A1A71236806255871012100237E
:101C800040F20112C4F8085284F8F811C4F8F03197
:101C900084F8F63184F8C1319846A4F8F421002381
:101CA000C4F8C431E36A0BB1A0689847BBF1000FD8
:101CB0000BD0B8F1220F3FF408AE00F25D82A8F11C
:101CC0001003DBB2032B7FF600AE2368B8F1000FE0
:101CD0007FF40BAE40361E70D4F8081200297FF452
:101CE0000FAE01200FB0BDE8F08FBAF1020F40F245
:101CF0005182D4F86431002B00F06D82D4F8603149
:101D0000002B00F0688294F8F421002A00F04E8243
:101D1000A0689847824500F2588294F8F5316F78B0
:101D2000002B00F05D82012F00F05A82002384F81E
:101D3000C1314FF07308B2E7BAF1010F40F02A82C7
:101D400094F8F431002B00F03182D4E97623134368
:101D500040F02C82D4F87051C4F808A2002D00F095
:101D6000B482A3680093D4E97823D4E97A01A84720
:101D7000002840F0AA824FF07208002100230022C0
:101D8000C4E97C11C4E97423C4E97623C4E9782347
:101D9000C4E97A23012384F8F831002384F8C1319F
:101DA0007DE7BAF1020F40F2FB811AF0010900F061
:101DB000F181D4F88C30002B00F0F581D4F890201C
:101DC000002A00F0F081D4F89420002A00F0EB8182
:101DD000D4F89820002A00F0E68101220696CDF87A
:101DE00020A0CDF828804E469246CDF824B044E09D
:101DF000D4F89030A26894F800123846984700282A
:101E000000F06183D4F89430A168384698470028E0
:101E100000F03883636806F10209002299450D92AB
:101E200000F2E982236898F800209A55236815F893
:101E30000B201E4438467270D4E90012A368009348
:101E4000033A4944D4F898600DABB047002800F03D
:101E5000CC820D9E002E00F0C88263684E449E42E4
:101E600000F2C9820AF1020A089B5FFA8AFA534516
:101E7000D14640F24082D4F88C3015F80900A268AF
:101E800094F8C01109F1010B05EB090815F80B7066
:101E900047EA0027384698470028A9D1069EDDF872
:101EA00024B04FF0310878E7BAF1030F40F27281A5
:101EB000D4F83031002B00F05981D4F83431002BA4
:101EC00000F07181D4F83C31002B00F06C81D4F823
:101ED0004031002B00F06781D4F83831002B00F03E
:101EE0006281D4F84C31002B00F05D81AB1C06936D
:101EF000184651466B78089302F032FFD4F844310B
:101F00008046002B00F02E82A16898470990D4F8F3
:101F10004831A26823B1089940469847A268814693
:101F2000D4F8303194F8C01140469847002800F0AA
:101F30004C81D4F83431A26894F800124046984796
:101F4000002800F06B82D4F83831A2680899404626
:101F50009847002800F09C82AAF104030A931A46CD
:101F60000899A368D4F83C714046B847002800F0AF
:101F70001181A36800932A1D0A9B0899D4F8407127
:101F80000B924046B847002800F01F81099B002BA8
:101F900000F09E81B9F1000F00F0BE82D4E900315B
:101FA000A26804920439089A029103F1040C0DA965
:101FB000009203914FF00009CDF804C0DDE90A3228
:101FC0004046CDF834908DF833900DF13301D4F8BC
:101FD0004C71B8470D9B626804339342804600F20F
:101FE0009582002800F09E8278280CBF01230023F0
:101FF00084F8C1317FF453AE236A189AC4F8CC2117
:10200000C4E9715A002B3FF44DAEA068984749E6E9
:10201000BAF1010F40F2C480636E002B00F0A6807D
:10202000A26E002A00F0BF80E26E002A00F0BB80A2
:1020300095F80180A16808F07F0738469847002886
:1020400000F0C08018F0010840F0488194F8013297
:10205000002B00F06D81A91CAAF10202E56EA368B5
:102060003846A847002800F0068223687A1E5F7071
:10207000022384F80022C4F80832002384F80132D5
:102080008BE6002384F8C1314FF0110807E6BAF15E
:10209000020F40F08580A36B002B67D0236C002BD0
:1020A00000F08180E26B002A7DD0626C002A7AD039
:1020B0006F7807F07F056A1E042A00F20081A1688C
:1020C00028469847002800F03681A36BA0689847FF
:1020D000002800F0F480E36BA168284698473A0690
:1020E00000F1FA812368042D5D7000F0FE81022367
:1020F000C4F808324FF000084FE6BAF1020F4FD192
:102100006F7817F07F0557D06B1F3A2B5AD97F2D68
:1021100058D094F8C031AB420DD00023012D84F883
:10212000003208BFC4F80432236B23B184F8C051D5
:10213000A16828469847390684F8C05140F1E480E8
:102140000023C4F80832984627E6BAF1020F21D1DD
:102150006B7813F07F082FD11B065EBF236883F8CE
:102160000180C4F808A284F8C18198E5002384F8AE
:10217000C1314FF0100892E5B8F1330F3FF4A5AB31
:10218000FFF4A3ADA8F17E03DBB2012B3FF69DADBA
:10219000FFF79BBB002384F8C1314FF013087EE5A5
:1021A0004FF01308F9E54FF01008F6E5002384F826
:1021B000C1314FF0240872E5002384F8C1314FF09B
:1021C00012086CE54FF01208E7E5002384F8C131EE
:1021D0004FF0310863E584F8C1314FF072085EE5D5
:1021E00094F8F8319F42AAF1020A00F0BE80013B48
:1021F0009F427FF49BAD94F8F631002B00F01381E1
:10220000D4F86C31002B00F02181D4F86031A06843
:10221000984794F8F8216368013A9742A3F10201C4
:1022200009D1D4E97623D4F8F05112EB050843F133
:102230000009C4E97689D4F8D85102F09BFD014623
:10224000284602F097FD8046002800F0268122688B
:10225000A16894F8F7310093019103460232D4E962
:102260007401D4F86C51A847002800F0EF80D4E93D
:102270007421D4F8D801C4F8F08112EB08024FF0B1
:102280000005C4F8D021D4F8DC2145EB0101B0EB06
:10229000080062EB05024346C4E976020233C4F843
:1022A000D411C4F8083222680023791C84F8F5316F
:1022B00084F8F8119846577084F8C131EFE44FF074
:1022C00022080023C4F8083267E54FF0000854E5FF
:1022D000002384F8C1314FF02208E0E4636F6BB350
:1022E000A068984794F80032BB4200F08A8048B357
:1022F0004FF0370851E53346DDF824B0069EC4F8A8
:1023000008324FF0000848E523685D702068A28914
:102310000221023002F012FD2068E289043002211D
:1023200002F00CFD0623C4F808324FF0000834E533
:102330004FF02408A1E64FF01208C2E794F80032EB
:10234000BB425ED02068A36EA16802309847226825
:102350000230012357704FF00008C4F8080284F8D7
:1023600001321AE5CDF82490D1E594F8F631002B2E
:102370007FF446AF7B1E9F4255D0D4F86831089356
:10238000002B63D0D4E9762352EA030100F0858064
:102390004FF000094B4508BF52457ED3A26894F820
:1023A000F731009301925346AA1CD4E97401089DA9
:1023B000A84700284AD0D4E97431D4F8D821C4F809
:1023C000F0A113EB0A03C4F8D031D4F8DC3141EBAF
:1023D0000901B2EB0A02C4F8D41163EB090302212C
:1023E000C4E97623C4F808125DE7069EDDF824B040
:1023F0004FF01008D1E4069EDDF824B04FF0140829
:10240000CBE423685F7022684FF00008032382F852
:10241000028084F80182C4F80832BEE484F8C10165
:102420004FF033083BE4D4E97489D4F8F0C1A368D1
:102430000093B8EB0C0005F1020269F1000153466C
:10244000D4F86451A84700287FF42DAF0023002260
:102450000021C4E97423C4E97623C4E97823C4E9DC
:102460007A230123C4E97C1184F8C11184F8F8317E
:102470004FF0720813E4236F5BB3A06898474FF0E6
:102480003508FAE5DDF82880069EDDF824B084E4FE
:1024900084F8C1014FF0120801E40023002200215A
:1024A000C4E97423C4E97623C4E97823C4E97A2310
:1024B0000123C4E97C1184F8C11184F8F8314FF08C
:1024C0007108FFF7ECBB069EDDF824B04FF033082F
:1024D00063E44FF03508D0E54FF00008F1E64FF027
:1024E00000084FF00009FFF79CBB636CA068984799
:1024F0002268032390704FF00008C4F808324CE4BF
:1025000000220023CDE90623FFF767BB84F8C191C1
:102510004FF01408FFF7C3BB84F8C1914FF02408B3
:10252000FFF7BDBB2368089A5A702068069A0223F9
:102530001844194602F054FC0D9B84F8C181043301
:10254000C4F80832FFF7ABBB30B370B50446056F73
:102550000023002000210122C4F8083284F80C3244
:10256000A4F80032C4E97C3384F8C02184F8F8214F
:10257000C4E97401C4E97601C4E97801C4E97A01C7
:102580000DB1A068A847D4F8BC311BB1A068BDE864
:1025900070401847012070BD704700BF70B582B011
:1025A00000284AD0836A04460E46F3B180689847F3
:1025B000D8B1226B0023012084F8C00184F80032D6
:1025C000C4F804320AB1A168904700220023C4E98C
:1025D0007423C4E97623C4E97823C4E97A23002369
:1025E000C4E97C33012284F8F82194F8C13153B155
:1025F000636A43B1A068984728B1D4F8C41111B1F7
:10260000D4F8C821EAB994F8C031032B03D00125CE
:10261000284602B070BDD4F8DC30002BF7D0D4F8D7
:10262000E020002AF3D0A068984705460028EED0A5
:10263000D4F8E03030469847EAE70546284602B02D
:1026400070BDD4F8CC31009320460023FFF7E4F8A6
:10265000D9E700BF28B130B401B122B9002030BCA5
:1026600070470020704730BCFFF7D6B808B190F82B
:10267000C001704700F032BC70B5204D2C7A24B1F7
:10268000012C21D000232B7270BD6B683BB3FEF789
:10269000DFF90646FFF7EEFF0446FEF7DFF978B9EB
:1026A00026B1A41B40F6B7339C4209D9FFF7E2FFDD
:1026B000D5E90023C01A9042E6D901232B7270BDE0
:1026C000BDE87040FFF7D6BF0220FEF701FAFEF723
:1026D0003DFA40B10220BDE87040FDF753BFFFF75F
:1026E000C9FF6860D3E72046FEF7F2F9FEF72EFA3D
:1026F0000220BDE87040FDF745BF00BF68C7FF1F5F
:1027000010B5044690B111220B4904F007FB80B1CB
:102710000F220A49204604F001FB40B120460F2257
:10272000074904F0FBFAB0FA80F0400910BD02201E
:1027300010BD032010BD00BFB07900003C7A00003E
:102740004C7A00002DE9F04387B069B31F46831E21
:10275000012B29D8B2F1140818BF4FF00108022844
:10276000C8F100060CBF4FF001094FF00209BFB1DC
:10277000142A19D1884403E0013F06F114060FD052
:1027800008EB060501AC28686968AA68EB680FC405
:102790002869206001A94846FEF79EFC0028EBD17D
:1027A000304607B0BDE8F0834FF0FF36F8E700BFD2
:1027B000013802288CBF002001207047F8B540B1D5
:1027C00039B10446104617460E46FFF7F1FF05469D
:1027D00010B900252846F8BD20460C2102F0E2FA87
:1027E000C4E900672846F8BD002840D0F0B504468B
:1027F00087B04068FFF7DCFF002836D02568A5B316
:102800000823002201A8696901F0D2FE267A8DF81A
:1028100010600821072002F0ADFA0A3E0746802129
:10282000072002F0A7FA182E00F29080DFE806F0E9
:10283000847A708E8E665C528E8E488E3E8E348E7A
:102840008E8E8E8E2A8E208E0D00034605F55072D8
:1028500007210DF1110002F0C3FA0023237201A930
:10286000606801231422FFF76DFF07B0F0BD7047C9
:10287000034605F50C7207210DF1110002F0B0FAC4
:102880002223EBE7034605F5D47207210DF1110071
:1028900002F0A6FA2023E1E73B4605F57072072116
:1028A0000DF1110002F09CFA1E23D7E73B4605F517
:1028B0002C7207210DF1110002F092FA1823CDE7D6
:1028C0003B4605F50A7207210DF1110002F088FA66
:1028D0001623C3E70723194605F22F120DF1110045
:1028E00002F07EFA1423B9E70723194605F594721E
:1028F0000DF1110002F074FA1123AFE70723194616
:1029000005F221120DF1110002F06AFA1023A5E779
:102910000723194605F1AE020DF1110002F060FA2D
:102920000F239BE70723194605F1A7020DF11100BC
:1029300002F056FA0C2391E70723194605F1A0028D
:102940000DF1110002F04CFA0B2387E76B882A780F
:1029500042EAC3025B098DF811208DF812302B7901
:102960008DF813306B798DF81430AB798DF8153004
:10297000EB798DF816300A2370E700BF38B1036891
:102980002BB18B4203D3934201D2186870474FF0AA
:10299000FF30704740B1006830B1884203D39042A5
:1029A00001D2401A70470020704700BF00B10830C4
:1029B000704700BF00B1807A704700BF00B1C07A95
:1029C000704700BF00B1007B704700BF00B1407B83
:1029D000704700BF08B1807B70470620704700BF7A
:1029E00028B121B150F80F3F42684A600B60704730
:1029F00008B143681847704768B159B1027A0B7A39
:102A00009A4200F1080001F1080105D0012080F090
:102A1000010070470846704742784B789A42F5D1DA
:102A20000020F4E751B150B10B8903808B7A837099
:102A3000CB7AC3704B7B43710120704708467047C7
:102A4000014800F031B800BF00C4FF1F014800F08A
:102A500003B800BF04C4FF1F70B50346E0B1114DB9
:102A600040682B60D8B10024012604E0064658686F
:102A7000013484420ED21A6804EB840152F82120FA
:102A8000002AF5D090472B680028EFD05868013411
:102A90008442F0D3304670BD0646304670BD0126F4
:102AA000F8E700BFF424002048B108B5044A034603
:102AB00001210078136000F037F8012008BD70474D
:102AC000F8240020024B1B680121187800F02CB874
:102AD000F8240020024B1B680021187800F024B86D
:102AE000F8240020014800F003B800BF5C7A000021
:102AF00098B1006888B110B58268037B01790068DD
:102B000003F09AFC00210446084603F0A3FC20438E
:102B100080B2B0FA80F0400910BD7047014800F063
:102B200043B800BF707A0000124B1B68D3B11A681B
:102B3000904217D270B55C6804EB00140D46D4E9DE
:102B4000016089B13146012200F066F8E2786168DF
:102B5000E06800F063F80121E068B14000F06AF835
:102B6000284670BD002070470A46314600F054F8F0
:102B7000012070BD002500200A4B1B6813B11A68A4
:102B8000904201D3002070475B6810B503EB001042
:102B900001244168C06804FA01F100F04BF82046B6
:102BA00010BD00BF00250020002831D042686AB364
:102BB000F0B50368174E87B0306023B30024254674
:102BC00000E05A68029521015318D3E9017093F887
:102BD00001E093F802C00090D868DB780595049076
:102BE000039501978DF808E08DF80BC08DF814302F
:102BF000535C8DF81530684600F01EF833681A688B
:102C00000134A242DDD8012007B0F0BD1046704764
:102C1000704700BF0025002000F0CCB810B4436915
:102C200001248C4023EA04038A401A4342615DF880
:102C3000044B7047C1607047F0B4027AD0E90014C9
:102C4000012A51F824305DD0002A58D0022A01D13F
:102C500043F00303457A827A23F0100343EA051315
:102C6000C57A920123F4E86302F04002082D43EA9A
:102C7000020324D02A0202F4E0621343427B067B63
:102C8000877B23F4004343EAC636130403F470231E
:102C900026F4702213430FB143F0807341F82430BF
:102CA0000122D1F8C060C37BA240D7433E40A3407D
:102CB0003343012DC1F8C03018D0F0BC70473A4EF4
:102CC0003A4AB14252682FD0394EB142D6D1002C87
:102CD00066D0012CD2D102F00706344A576827F09B
:102CE0000F07576057683E435660C7E70369057D85
:102CF0005969B5B1012D0AD05961F0BC704723F074
:102D00000203A7E723F0010343F00203A2E7407D9B
:102D10001D6800FA04F42F40274311431F605961D6
:102D2000EBE739405961E8E702F00F06102CA5D80F
:102D300001A757F824F000BF9B2D0000952D00003F
:102D40007D2C00007D2C00007D2C00007D2C0000DF
:102D50007D2C00007D2C00007D2C00007D2C0000CF
:102D60007D2C00007D2C00007D2C00008F2D0000AC
:102D7000892D0000832D00007D2D000002F00D063E
:102D8000ABE702F00E06A8E746F00806A5E746F016
:102D90000406A2E746F002069FE746F001069CE71C
:102DA00002F00B0699E700BF00A004400080044039
:102DB00000B00440082A50F8213008D0120202F472
:102DC000E06223F4E0631A4340F82120704730B4F6
:102DD0002F4C304AA04252681AD02F4CA04207D044
:102DE000002223F4E0631A4340F8212030BC7047EE
:102DF000002949D00129F3D102F00704254A55687A
:102E000025F00F05556055682C4354600022E8E713
:102E100002F00F041029E3D801A555F821F000BFF6
:102E2000832E00007D2E0000E12D0000E12D00002A
:102E3000E12D0000E12D0000E12D0000E12D00005A
:102E4000E12D0000E12D0000E12D0000E12D00004A
:102E5000E12D0000772E0000712E00006B2E000087
:102E6000652E000002F00D04C8E702F00E04C5E76D
:102E700044F00804C2E744F00404BFE744F002044D
:102E8000BCE744F00104B9E702F00B04B6E700BF69
:102E900000A004400080044000B00440014800F05D
:102EA00027B800BFCC7A0000014800F003B800BF8B
:102EB000D07A0000034B186018B1036803B11847BB
:102EC0000120704704250020034B1B6813B15B6889
:102ED00003B11847704700BF04250020034B1B684F
:102EE00013B19B6803B118470020704704250020E8
:102EF00000784FF47A7101F0AFBF00BF01F0C8BF96
:102F000001F0CEBF0120704701207047704700BF1D
:102F1000704700BFF8B5044618B119B122B12BB9FA
:102F20001846F8BD0846F8BD1046F8BD0D462021EC
:102F30001F46164601F036FF00230120C4E9005663
:102F4000A760A3612077F8BD70B560B159B1057F66
:102F50004DB1BFF35B8F4269BFF35B8F83689A42C9
:102F600000F1140602D30025284670BD04460A4627
:102F700023684168006900FB01300B4601F030FF17
:102F80002369A1680133B3FBF1F201FB1233236122
:102F9000BFF35B8F56E8003F013346E80032002A5A
:102FA000F8D1BFF35B8FD4E9050101F0EFFEA0611A
:102FB000284670BD38B550B131B1057F2DB1436998
:102FC00043B91D46284638BD0D46284638BD05463E
:102FD000284638BD044608466368E168226801FB5C
:102FE0000322194601F0FCFED4E902130133B3FBBE
:102FF000F1F201FB1233E36004F11400BFF35B8FC5
:1030000050E8003F013B40E80032002AF8D1BFF30E
:103010005B8F284638BD00BF30B1037F23B14069C4
:10302000B0FA80F040097047012070479F4B2DE9AE
:10303000F04753F820402368002B80460F46164681
:1030400005DB204600F0CEFD204600F0D7FA737A6B
:1030500062685B0322F4005203F40053134363607D
:10306000204600F0B7FA204600F0BCFD204600F0F4
:10307000D1FA2368327A23F400636AB143F400631F
:103080002360236D43F00043236523681B0500F193
:10309000A3800120BDE8F0872360236D23F0004367
:1030A000236523681A05F4D4636B23F48053B27943
:1030B0006363022A03D0236843F4003323607379E7
:1030C000002B40F0CE8096F83430012B00F0D580F4
:1030D0001BB9236823F400432360F179204600F0F4
:1030E000E9FD3168204600F093FC0028D2D1D4F8E5
:1030F00000C0F3681CF4006FD6E90652D6E904104C
:103100006ED1D4F804C003F0070343EA056300045A
:103110004FF6F87500F4E020C9040CEA050501F447
:1031200060116560034392050B4302F4400261683D
:1031300013430B436360B179204600F071FDB3790E
:10314000032B02D0204600F041FD594B33F9180003
:1031500010F1800F01D003F00DFD564B564C33F9A2
:10316000180003F007FD554B33F9180003F002FD7A
:1031700034F9180010F1800F01D003F0FBFC08F1C6
:10318000030334F9130010F1800F01D003F0F2FCB7
:1031900007F1040AD1465446002508E00135202DE8
:1031A000A07044F8040C587104F108046ED000219A
:1031B000204600F08BFD07EBC5030028EED0002D64
:1031C0003FF467AF0AEBC505484609F1080900F06E
:1031D00087FD4D45F8D15CE7636B43F4805366E7A8
:1031E000D4F850C04FEA411E9B0235490EF4787E58
:1031F0009BB243EA0E0300F01F0E0CF00040206566
:1032000001EA455543EA0E03120402F4F81C2B436D
:10321000256D2C4843EA0C032B43D6E9082123658E
:10322000D4F804ECD6E90AC593020EEA000049017D
:10323000326BC4F8040CC9B203F4F84322480B43C0
:103240000CF0070C43EA0C03120400EA0555D4F80D
:10325000041C02F4E0222B4313430B43C4F8043C48
:1032600069E73179204600F097FB00287FF412AF20
:1032700096F83430012B7FF42BAF236899007FF54B
:1032800008AF236843F40043236026E796F8343000
:1032900087F811310D4B96F8352087F81021C7E9D2
:1032A0004000C7E9420043F82870F3E6DC7A0000EA
:1032B000047B0000F07A0000F87A0000E87A000051
:1032C0000000E07F188308C00000F03F08250020C0
:1032D00070B50C4C556854F82000147886B00495ED
:1032E000002500958DF80C400824967A15898DF8F4
:1032F00016600DEB0402ADF81450029400F0CAF908
:1033000006B070BDDC7A00002DE9F043284D294C51
:1033100055F8206054F8204087B030460F461546D7
:10332000984600F045F9874238D204EBC704637928
:10333000002B38D11F2F02D80123BB403363EA7A18
:10334000E2714FF000094A454FF002030E9A637193
:1033500084F8069000922A8969682878ADF81420CC
:1033600014BF1C220C22AD7A029204918DF80C003D
:10337000434602AA394630468DF8165000F08AF9C5
:1033800038B939463046012200F0D6FB07B0BDE817
:10339000F08384F8059007B0BDE8F0834FF44070E7
:1033A00007B0BDE8F083022007B0BDE8F08300BF9E
:1033B000DC7A000008250020F0B5174C177854F887
:1033C00020505068167A85B00F2402906A4628462D
:1033D0008DF804708DF80C6000940E461F4600F0C6
:1033E0004BFA044610B1204605B0F0BD3B466A4694
:1033F00031462846009400F03FFA04460028F2D1F6
:103400003B466A46314628460424009400F034FACC
:103410000446204605B0F0BDDC7A00002DE9F843F3
:103420001A4C1B4B54F8204053F8208020460D4680
:10343000174600F0BDF8854223D223689B0006D5CD
:10344000636BC3F303635B0007339D4219D90FFA23
:1034500085FC08EBCC06737903F0FF0973B90122F0
:103460007271294648F83C70204686F8069000F0B4
:1034700063FB08B186F80590BDE8F8830220BDE83B
:10348000F8834FF44070BDE8F88300BFDC7A000099
:10349000082500202DE9F041DFF8DC80314B58F899
:1034A000206053F820400746D6B1D6F80831BBB1AA
:1034B00000224FF48041204600F05CFB00224FF4D4
:1034C0008061204600F056FB00224FF40061204648
:1034D00000F050FB00224FF40041204600F04AFB70
:1034E000214B33F9170010F1800F01D003F04EFB90
:1034F0001E4B1F4D33F9170003F048FB1D4B33F9EA
:10350000170003F043FB35F9170010F1800F01D0CD
:1035100003F03CFBFB1C35F9130010F1800F01D0C8
:1035200003F034FB2368002B14DA6EB1341D002540
:1035300006F58276204600F0D3FB0834002818BF39
:103540000125B442F6D115B9002548F82750284680
:10355000BDE8F081204600F045FB204600F04EF823
:10356000E3E700BFDC7A0000047B0000F07A000093
:10357000F87A0000E87A000008250020074B53F88D
:10358000203003EBC1014B7903F0FF0023B14B79ED
:10359000032B0CBF01200220704700BF082500202C
:1035A000024B53F82030C3E9401270470825002031
:1035B000074B98420AD003F58053984206D003F592
:1035C000C04398420CBF2020002070472020704745
:1035D000004002400368DA020ED5036823F000437E
:1035E0000360036823F080430360036823F0805383
:1035F000036003681B01FCD4704700BF0368002B05
:1036000006DB036843F0004303600368DB02FCD57C
:10361000704700BF036843F00073036003689B01B9
:10362000FCD40368164A43F480539042036023D0CD
:10363000144B98420ED003F5C04398421ED04FF071
:10364000FF330021104A0361436183618162036398
:10365000026270470D4B03F50071002243F8042B02
:103660008B42FBD100F5086300F51061002243F89E
:10367000042B8B42FBD1E2E7054BECE78033EAE712
:10368000004002400050024006003B0080500240D3
:10369000804002402DE9F0430468DDF81CC0270596
:1036A0001BD5D0F8004C0668C4F30144E51C012486
:1036B000AC40083406F07F06E4B28E424FF4007549
:1036C000B5FBF4F54FEA940410D203689F0000F1B3
:1036D0009C804FF44070BDE8F083066806F07F06DA
:1036E0008E424FF004044FF02005EED30668B6007A
:1036F00000F182800668360503D5967B002E40F0E7
:103700009F80B1FBF5F605FB161104FB01F49168EF
:1037100004EBC616CCB206F12007402C00EB87075D
:1037200078D8524D15F804E04FEA0E4808F4702896
:10373000BCF1000F2CD0BEF1080F0BD9AEF1090E71
:103740005FFA8EFEBEF1060F9ABF494C14F80EE0E8
:103750004FF0000E31F0030463D18C4207F10805ED
:103760000BD2611E8C4484F003011CF8019F05F804
:10377000019091680134A142F5D8714508D281F0D9
:103780000304013192F80DC005F804C07145F6D16B
:10379000147900EB86000021012CC0F880107960BC
:1037A00058D05CB97C68334924F0FF5424F4E01409
:1037B0007C607C6801EA834323437B6013680F2BA2
:1037C00045D01C2B117B4FEA036308BF48F48018D7
:1037D00003F0706343EA080809B148F00048937B9E
:1037E0000BB148F08048D0F8803043EA0803C0F8B5
:1037F00080300020BDE8F083466BC6F30366760098
:1038000007368E42FFF476AF63E7436B4FF44070A8
:10381000BDE8F0834FF47028BCF1000FB8D04FF032
:10382000000E0024A508A90008315CF825502DBA27
:103830007D509168043421F00305A542F2D88CE74D
:10384000D0F8006C46F00046C0F8006C59E7002044
:10385000BDE8F083796801F060417960796823F010
:1038600060430B4348F400187B60A7E7147B00001B
:103870000C7B00000000FC1F70B4046824051BD5FD
:10388000D0F8004C0668C4F30144E51C0124AC40A8
:10389000083406F07F06E4B28E424FF40075B5FBA3
:1038A000F4F54FEA940410D203689B0054D5436B9F
:1038B00070BC4FF440707047066806F07F068E4279
:1038C0004FF004044FF02005EED30668B6003CD458
:1038D000B1FBF5F605FB161104FB01F404EBC6146D
:1038E00004F1200600EB860600EB84001479002129
:1038F000012CC0F88010716035D08CB9D0F88040B0
:10390000244924F4C004C0F88040746824F0FF54B3
:1039100024F4E0147460746801EA83432343736001
:1039200013680F2B1CD0D0F8803023F07063C0F8E0
:1039300080301368D0F880201B0603F070631343B7
:10394000C0F8803070BC00207047466BC6F3036639
:10395000760007368E42BBD34FF4407070BC704780
:10396000002070BC7047D0F8801041F40011C0F8FE
:103970008010D0F8801021F48001C0F880107168A8
:1039800001F060417160716823F060430B43736024
:10399000C6E700BF0000FC1F1B4B984210B410D0BC
:1039A00003F5805398420CD0184C0368A0420CBF1A
:1039B0002024002413F4006309D001205DF8044B97
:1039C0007047036813F400634FF02004F5D10268D8
:1039D00042F000520260426B090622F0706201F070
:1039E000706111434FF0FF324163826444B16FF064
:1039F000604103F508720133A34240F82210F8D168
:103A000000205DF8044B70470040024000B00240C7
:103A100003682DE9F0411E0540F18280D0F8006C6A
:103A2000C6F30146F31C01269E4006F10804036814
:103A30001D0501F1FF3270D5D0F8003CC3F30143FE
:103A4000DD1C0123AB400833DBB24FF40075B5FB3E
:103A5000F3F59B08B2FBF5F705FB172503FB05F310
:103A600003EBC713203300EB8303234400F52074DA
:103A70009C424ED32F4B984255D003F58053984229
:103A800051D003F5C04398420CBF20230023994234
:103A90003FD8036802F07F0223F07F031A430260DD
:103AA000036813F0005E31D181B3083675464FF0DC
:103AB000010C4FF40077744603681B0535D5D0F828
:103AC000002CC2F3014203320CFA02F20832D2B2E5
:103AD0004FEA9208B7FBF2F3BEFBF3F203FB12E3EB
:103AE00008FB03F303EBC213203300EB830240F81F
:103AF000234002F108035460324403F8014B93421F
:103B0000FBD10135EDB28D42AE46D5D30020BDE8E4
:103B1000F0814FF44070BDE8F0810423202599E73F
:103B20001024082683E72023B1E74FF00408202360
:103B3000D2E700BF00400240036803F07F038B42DE
:103B40000ED31F2902D9002210467047012303FA21
:103B500001F1836A42B11943002281621046704725
:103B60004FF440721046704723EA0101816210460B
:103B7000704700BFAAB1B1F5806F0DD0B1F5006FED
:103B80000AD0B1F5804F03D1436B43F00043436348
:103B90004368194341607047036843F400130360AE
:103BA000EFE74368B1F5804F23EA0103436003D197
:103BB000436B23F000434363436813F4406F03D126
:103BC000036823F400130360704700BF036823F009
:103BD00080530360036823F0804303600368DB01C4
:103BE000FCD47047036843F080430360036843F0EC
:103BF000805303600368002B0CDB01220368D901AA
:103C0000FCD532B9036843F0004303600368DB026C
:103C1000FCD57047036823F0004303600022EDE702
:103C2000042910D8DFE801F01522032710004368AB
:103C300043F480534360436823F008034360036800
:103C400023F4003303607047036843F000430360CC
:103C50007047036823F400030360436823F00803FC
:103C60004360436823F4805343607047436843F0E4
:103C7000080343607047036843F0804303600368B0
:103C800043F0805303600368002B0DDB01220368BF
:103C9000D901FCD5002AD6D1036843F00043036064
:103CA0000368DB02FCD57047036823F00043036020
:103CB0000022ECE70268130507D5D0F8003C23F496
:103CC000403343EA0143C0F8003C704738B504462E
:103CD0000D4602F075FF257002F066FF002038BD2A
:103CE0000020704710B5044688B1026882B142686E
:103CF00072B1026C62B1426C52B1826842B1C26868
:103D000032B100F0A3FA204600F0A4F8012010BD63
:103D1000104610BD10B5044628B100F0A7F82046A3
:103D200000F0ACFA012010BDA0B32DE9F04104462B
:103D300099B31AB3456C954226D390F84C70BFB92D
:103D4000154698460E4600F081FA40F20111012313
:103D5000A4F84C1084F8543032462B46D4E91001B4
:103D600001F03EF8A564C4F874803846BDE8F081DF
:103D7000032380F84D304FF0FF30F7E7072380F83A
:103D80004D304FF0FF30F1E70E2380F84D304FF00B
:103D9000FF30EBE74FF0FF307047062380F84D30DF
:103DA0004FF0FF30E2E700BF30B5264B90F82850C7
:103DB000C26A044693E803008BB003AB83E80300B8
:103DC000214994F829008DF80D0045F030058A420C
:103DD0008DF80C502DD8B2F5617F21D91B4D02F220
:103DE000E732A5FB0212C2F38715227E0192082258
:103DF000009205A894F8202061698DF80E5000F01B
:103E000005FC05A9A368626F606A984798B1E36BE7
:103E1000B3B1606A9847C4F8800001200BB030BD90
:103E200062B10B4D6332A5FB02125209103AD5B2B2
:103E3000DBE77F25D9E70C200BB030BD1546D4E772
:103E40001846E8E77C76000017F00100D34D6210B9
:103E50001F85EB5148B110B514210446603000F0C5
:103E6000A1FF012384F8663010BD7047002844D0BC
:103E7000F0B587B000230446CDE90133CDE9033323
:103E80000593C269C368406A01A99847A0B994F82C
:103E90006450012D00F0CA8094F86550266B3EB145
:103EA000236E2268606A29469BB2B04794F8655039
:103EB000012D3AD807B0F0BD2269019B9A42E6D1A4
:103EC0009DF80F30217E03F00F029142DFD194F86C
:103ED0002020C3F300139A42D9D19DF81050E36B10
:103EE0002D09002B00F09680606A98472067032D0B
:103EF000D2D8DFE805F06D300324704794F8647081
:103F0000002F00F09C80012F40F086809DF810303B
:103F100094F8662003F00F03934200F0EF80266BC5
:103F2000092584F86550002EBAD1142104F16000EF
:103F300000F038FF012384F8663007B0F0BD94F834
:103F40004C30022B00F0B78094F84D3084F84D309F
:103F500094F86550A2E79DF810309DF8112003F009
:103F60000F0353EA020100F0C28042EA032694F8EC
:103F70006450002D6BD0012D4ED1256B25B100234F
:103F80001A460621606AA847142104F1600000F077
:103F900009FF0125062E84F8665072D961688E42A9
:103FA00077D806230DF11202206800F005FF0622E3
:103FB0000023C4E91A32266684F866502046FFF7CB
:103FC000F3FE0128054600F0C98084F8655065E7D6
:103FD0009DF8105094F8643005F00F0683B1012B62
:103FE00022D1276B27B100231A460621606AB84701
:103FF000142104F1600000F0D5FE012384F866303E
:104000002D074ED50725266B84F86550002E7FF4CA
:1040100047AF8AE7184669E7266B032584F86550A1
:10402000002E7FF43DAF80E70325ECE74FF47A7272
:10403000216F204600F0B6FBE0B10B25E3E7266BCD
:10404000052584F86550002E7FF42AAF6DE7062E13
:1040500017D961688E421CD806230DF11202206820
:1040600000F0AAFE062201232666C4E91A5284F84B
:104070006630A3E7266B84F86550002E7FF410AFFE
:1040800018E7266B082584F86550002E7FF408AFEA
:104090004BE7266B0A2584F86550002E7FF400AFAD
:1040A00043E733460DF11102D4E9000100F084FE2C
:1040B00002252666A7E79DF8103003F00F03022BB8
:1040C0004AD89DF812209DF8111010065BD44FF4C9
:1040D0007A7000FB02F284F8783084F87910E26795
:1040E000002B44D1032384F84C3001232EE7042114
:1040F0000DF1120000F02CFE064638E7A26EE16ECC
:10410000206E013303F00F03013284F86630A2669B
:10411000401A072100F032FE0646D4E90001E26EA3
:104120003346891A10440DF1110200F045FEE26E8B
:10413000236E16449E42E6661DD294F829206AB387
:10414000A06E58B3B0FBF2F102FB110232BB204665
:10415000FFF72AFE054638E70823F7E6266B40F20C
:104160000113A4F86430002E7FF49AAEA2E6012B6E
:1041700018BF0A23EAE6266B022284F86520002E87
:104180007FF48FAED1E602F10F00C0B2082897BFCE
:104190000648074A642515FB02029CE7266B84F853
:1041A0006570002E3FF486AE3D467AE640A2FFFFE2
:1041B00018F00100C8B1C1B12DE9F048027991F8B9
:1041C00004B04E7944790B68056884B042EA04244F
:1041D00002A94BEA0622684601940095CDE9023215
:1041E00000F020FE04B0BDE8F0884FF0FF307047CB
:1041F000F8B504466FF00040D4F88C10D4F8846011
:10420000E56F00F0BBFDD4F8881007466FF0004062
:1042100000F0B4FD0EB1BD420BD9E36BD4F8806061
:1042200093B1606A9847801B85428CBF00200120B3
:10423000F8BD8542F1D3411B304600F0ABFD791B40
:1042400000F0ACFD0544E8E70120F8BDA0B110B5D1
:1042500008210446783000F0A5FD142104F14C003B
:1042600000F0A0FDD4E9100100F09CFD0122002324
:1042700084F85420A36410BD704700BF60B12DE9DD
:10428000F04190F84C508AB00446032D00F287812B
:10429000DFE805F0324093037047AB4BC26F93E801
:1042A000030003AE86E80300002A40F03581626F08
:1042B000D4F88010204600F075FA636B0546002B99
:1042C00000F09980606A9847002840F09480002DA3
:1042D000A26D0CBF01250D2594F879304BB19342A6
:1042E00007D80023D4F88020A3650223226584F830
:1042F0004C3084F84D5001E090F84D50A36B23B141
:104300002946606A984794F84D50012D44D80AB068
:10431000BDE8F081866CC36F072E5CD8002B40F09F
:104320009C80436B23B1406A984700285CD0A66C00
:10433000226C8DF80C60CC20334607218DF80D00DF
:104340004CF6CC464FF0CC350DF10D00ADF80E60BB
:10435000049500F031FD237E01930823009394F827
:104360002020616903AB05A800F050F905A9A368F6
:10437000626F606A9847002800F00381E36B002BAE
:1043800000F00B81606A9847A36BC4F88000022597
:1043900084F84D50002BB3D104F14C00142100F0EF
:1043A00001FDD4E9100100F0FDFC0122002384F896
:1043B0005420A3640AB0BDE8F081C269016D00F029
:1043C000F1F9A36B002840F0A080012584F84D503E
:1043D000002B95D19BE7002B4BD1436B002B54D086
:1043E000406A984700284FD1A36B012284F84D20E2
:1043F000002B85D18BE7E36DA06CD4F84080C01A08
:10440000072100F0B7FC94F85450E26D05F00F0559
:10441000034642440721074645F020050DF10D00F3
:104420008DF80C5000F0C8FC237E009394F82020F7
:10443000616905A8082300F057F908231946324698
:1044400008A800F0B9FC05A9A368626F606A9847E4
:1044500000287BD1A26D0C253EE7FFF7C9FE636BF8
:1044600006461BB1606A98470028BDD0002EBBD01D
:104470005DE7FFF7BDFE636B06461BB1606A9847B8
:104480000028B1D0002EAFD0A66C2F4B226C93E841
:10449000030003AF0623C6F3032C87E803004CF0A8
:1044A000100C19460DF10E008DF80CC08DF80D6042
:1044B00000F082FC237E0622E265009394F820201F
:1044C000616905A8082300F00FF9082319463A4648
:1044D00008A800F071FC05A9A368626F606A98479C
:1044E00000284ED0E36B002B55D0606A9847A36B31
:1044F000C4F8800002210122206584F84C1084F861
:104500004D20002B7FF4FCAE01E70B2584F84D50C5
:10451000002B7FF4F5AE3FE72046FFF769FE626FA0
:10452000D4F880100746204600F03CF9636B05463E
:1045300023B1606A984700283FF4C9AE002F7FF48A
:104540005AAFA26D0125C7E684760000D4E916258E
:1045500094F85430E16B013303F00F0301322F4420
:1045600084F85430C4E9162799B1606A8847D4E9C1
:104570001627A56CC4F88000BD428CBF012502251A
:10458000AAE6A36B0C2584F84D50002B7FF4B8AE3F
:1045900002E70846EDE71846A9E71846F4E6836BFC
:1045A000042580F84D50002B7FF4AAAEF4E600BF3E
:1045B00070B504460E46154619464020AAB100F0D3
:1045C000E1FB082100F0D6FB00220F49C4E90122DB
:1045D000C4E90322095C26F06046E37A266065F3AD
:1045E0000413A172E372204670BD00F0CBFB0821DA
:1045F00000F0C0FB044A6560C6F30A06115C256141
:10460000C4E90255E9E700BF587B00002DE9F047F7
:1046100090B000248A460646CDE90144CDE9034422
:1046200005949DF860109DF86490002B3ED0082002
:1046300090461D4600F0A6FB0746B8F1000F3FD09C
:104640000146402000F09EFB082100F093FB254A24
:104650000C94CDE90D44115C0F942AF060439DF851
:1046600037200B9368F304128DF836108DF837203D
:104670000BAC0FCC0DF1180CACE80F009DF82330FB
:10468000D4F800C069F303038DF8233006AC0FCCD7
:104690000BAC0FC40BAC0FCC01AC0FC43B462A468D
:1046A000082104A8C4F800C000F09AFB01AD0FCDAA
:1046B00034460FC42B682360304610B0BDE8F08745
:1046C0000146402000F05EFB082100F053FB054A44
:1046D000CDF83080CAF30A03115CCDF83C80CDE9F7
:1046E0000D88BCE7587B0000F0B587B006460D4644
:1046F0009DF830701446194640201AB300F042FB72
:10470000082100F037FB0023154ACDE90233CDE93B
:104710000433125C25F060459DF80F30019564F379
:1047200004138DF80E208DF80F3001AD0FCD3446F7
:104730000FC4F37A2A68226067F303033046F372EA
:1047400007B0F0BD00F01EFB082100F013FB044B86
:104750000294C5F30A051A5C0594CDE90344DBE72E
:10476000587B000008B5082100F004FB014B185CE1
:1047700008BD00BF587B000010B459B1CB7A0C685B
:10478000046003F00F02C3F30011027141715DF880
:10479000044B70470C460A460460027141715DF893
:1047A000044B704790B138B5C36B6BB1406A154686
:1047B0000C4698474FF47A73041B03FB05F08442C0
:1047C00094BF0020012038BD184638BD704700BF97
:1047D00002F0EAB902F0F4B9D0E9002310B4846819
:1047E00081E81C00144BC2680A61DB6C02698A61B3
:1047F000C3F30333013B0E2B18D8DFE803F008089E
:1048000008110808080808080808080817004FF0E9
:10481000FF33CB60002300204B615DF8044B7047F1
:104820004FF4E023CB604FF48053F4E74FF40023C0
:10483000CB600023EFE700BF008004402DE9F84F74
:1048400085688D421CD8C6682E448E4218D901F561
:104850000006761BC2F30B01002A57D099B91C46FB
:10486000914607468BB32A4DB0464FF0700B4FF080
:10487000090AA0472B781B060ED40220BDE8F88F4A
:104880000668B14202D20120BDE8F88F4468344482
:104890008C42F8D98E1BDDE75FFA88F3C8F3074135
:1048A000C8F3072285F800B0384685F807A0A9713B
:1048B0006A712B7102F0D4FE08F5805806EB0903EB
:1048C0009845E1D00028D4D0DEE7114C35464FF0B2
:1048D000700A4FF0090823781A06CED5EBB2C5F35B
:1048E0000741C5F3072284F800A0384684F8078002
:1048F000A1716271237102F0B3FE05F5805506EBDC
:104900000903AB42C0D00028E5D0BDE71046BBE7A5
:104910000000024070B484688C420DD8C5682544FC
:104920008D4209D901F50001091B154C25782D068A
:1049300011D4022070BC70470468A14202D2012049
:1049400070BC7047456825448D42F8D9091B0C4C52
:1049500025782D06EDD5702525700126C1F3074574
:10496000E671A571C1F30726150AC9B2D2B2667104
:104970002171E572A272637270BC02F071BE00BF59
:10498000000002402DE9F84F5407DDF828800FD1D0
:1049900084688C4209D8C56825448D4205D901F543
:1049A00000052D1B72B9104603E00568A94202D22A
:1049B0000120BDE8F88F44682C448C42F8D94D1B87
:1049C000002AF0D01F4606461446B8F1000F41D029
:1049D000DFF834A1DFF834B19946C047474B1A7865
:1049E000120602D40220BDE8F88F70221A70072147
:1049F000C5F30742D9719A71C5F30721EAB259711B
:104A00001A7199F800308AF8003099F801308BF863
:104A100000303B4A99F80230137099F80330537014
:104A200099F80430937099F80530D370354B99F8A4
:104A300006201A7099F807205A70304602F010FECE
:104A400009F108093B19994505F10805B1D000287D
:104A5000C3D0AEE72C492D4A294BDFF8B4B0DFF8BC
:104A6000B4A0DFF8B490B846244890F800C01CF019
:104A7000800FB7D04FF0700C80F800C04FF0070ED9
:104A8000C5F3074C80F807E080F806C0C5F3072E91
:104A90005FFA85FC80F805E080F804C098F8000013
:104AA000087098F80100107098F80200187098F8D3
:104AB00003008BF8000098F804008AF8000098F8CA
:104AC000050089F800000F4898F806C080F800C07B
:104AD00098F807C080F801C0304602F0C1FD08F127
:104AE000080807EB040CE04505F108053FF461AF49
:104AF000034B064A04490028B6D05AE7000002409A
:104B00000A0002400E000240080002400900024074
:104B10000B0002400C0002400D0002402DE9F04F56
:104B200083B012F0030A9DF834B003D0012003B023
:104B3000BDE8F08FD0F808904945154611D3C468F8
:104B40004C44A1420DD201F50006A6EB0906002D4A
:104B500051D02A4C94F800C01CF0800F13D10220D1
:104B60000BE0D0F80090494506D344684C44A1427C
:104B700002D2A1EB0906EAE701200C9BC3F800A0D2
:104B800003B0BDE8F08FD04601901F1DB24602234E
:104B90004FF070022270CAF30740E371CAF3072195
:104BA0005FFA8AF3A071164A6171237184F80BB021
:104BB00017F8043C137017F8033C537017F8023CC5
:104BC000937017F8013CD370019802F049FD043747
:104BD000AB1930B1BAF5000F28BFA9F50009CA44D6
:104BE000CBE70AF1040A9A4504D023781B06CED4F9
:104BF000C246B4E7C2460020BFE700BF0000024043
:104C00000C00024099B392B32DE9F047C443EBB1D5
:104C100002F1FF39164F1E4689444D1EC1F10108AD
:104C200040F6FF7A08EB050115F8012F6240D2B279
:104C3000C1F30B0157F82230514583EA142400D107
:104C4000B0474D45EED1E043BDE8F087013A084F4B
:104C50000A44013911F8013F6340DBB28A4257F838
:104C6000233083EA1424F5D1E043BDE8F087704790
:104C7000647B0000C0B1A9B110B5A6B0044698226B
:104C8000684601F0A5FF4FF48A620021204601F03A
:104C9000C7FF694604F10800982201F099FF01203E
:104CA00026B010BD08467047704700BF00B10170C4
:104CB000704700BF28B121B10B68C0F802308B8863
:104CC000C380704730B108B519B1A030812201F01E
:104CD0007FFF08BD704700BF58B1042909D842B111
:104CE00001EB011300EBC3035168106803F50A736D
:104CF00003C3704770B104290CD85AB108B501EB51
:104D0000011300EBC300114600F5D470802201F0BE
:104D10005FFF08BD704700BF78B103290BD910B4FD
:104D2000110C140E130AC2700470417083705DF888
:104D3000044B0120704700207047704738B10129AB
:104D400004D9130A42700370012070470020704795
:104D5000032903D918B1006800BA704700207047D2
:104D6000012904D920B1008840BA80B270470020E0
:104D7000704700BF884228BF08467047884228BF56
:104D800008467047884228BF08467047884238BFA7
:104D9000084670478842B8BF084670478842A8BF97
:104DA0000846704718B10A46002101F039BF704724
:104DB00008B101F035BF704738B5044648B1154613
:104DC0000A460DB1994205D22046002101F028FF84
:104DD000002038BD1A46294601F008FF012038BDE1
:104DE000E0B170B514460A469CB1994211D3051B37
:104DF000002D264613DD06461D462146491902D0E0
:104E0000891B002905DC1A46214601F0E1FE01203C
:104E100070BD002101F004FF002070BD70470D46F9
:104E20000146EBE7A0B189B1D1E9002330B4D0E964
:104E30000045AB4208BFA2420BD39D4208BF94423B
:104E400034BF4FF0FF30002030BC70470846704739
:104E50007047012030BC704709B90846704730B52B
:104E600083B000250C4601A9019501F0BDFB074B5D
:104E70001D600199B1FBF4F1072221F07F4101206F
:104E800059609D601A6003B030BD00BF10E000E0C3
:104E9000024B00221A605A609A60704710E000E0EE
:104EA000014B1868704700BF14250020024A1368A0
:104EB00001331360704700BF14250020F0B482B0A6
:104EC000002950D0304CD4F80033C3F34063002B9A
:104ED0003DD1D4F800234FF0806522F40002C4F8DD
:104EE0000023C4F80053002839D08A784F794D78D0
:104EF000264E2748002F4FEA022205F0070508BF7B
:104F0000304602F4E0628E79097842EA050214BF65
:104F100001250925002E08BF284601F00301C4F829
:104F20000423C4F80813C4F80003D4F80023D00104
:104F300026D423461422D3F80013C90102F1FF320C
:104F400009D4002AF7D1032002B0F0BC7047022038
:104F500002B0F0BC7047D3F80833002AF3D0002029
:104F600002B0F0BC704701234FF480728DF8061038
:104F70008DF805308DF80230ADF800206946A1E7C4
:104F8000D4F808231846E3E70040064009008000F3
:104F900001008000F0B484B0002958D0404AD2F813
:104FA0000031C3F34063002B3BD1D2F800413D4DAB
:104FB00024F40004C2F800414FF08064C2F80041BC
:104FC0002B6000283FD0CB798F794C79487A0E7AC4
:104FD0001B01FF0003F0300307F00807A40004F0F2
:104FE00004043B43234300020C7900F4E06006F024
:104FF00007063043012CC2F80401C2F8083143D03F
:10500000002C39D0022C2ED00B682B606BB9244AAF
:10501000254BD2F80011D2F80011013BFBD103203F
:1050200000E0022004B0F0BC70471D49D1F8003107
:10503000D80108D41C4BD1F80021D20103F1FF3371
:105040002BD5002BEBD0002004B0F0BC7047174CE0
:10505000174A8DF80C1040F20113CDE90042ADF86B
:10506000083069469AE70C7B124B1348002C08BFA6
:105070000346C2F80031C7E7087B104B002808BF81
:105080000123C2F80031BFE7087B0D4B002808BFA1
:105090004FF00113C2F80031B6E7002BCBD1BEE7C9
:1050A000004006403825002088E7300000127A00D2
:1050B00000010002010083000100030001008000E4
:1050C0000100810030B482B0002949D02D4AD2F8C5
:1050D0000032C3F3406363B9D2F8004224F4000401
:1050E000C2F80042C2F8003238B9002002B030BC29
:1050F0007047022002B030BC70478B7848780D7939
:105100000C781B0200F0070003F4E063002D43EA73
:1051100000034D798979C2F8043214BF07200520B5
:1051200004F0010414BF03230123002D08BF184617
:10513000C2F8084219BB13496423C1F80002D1F830
:105140000022D00103D5D1F80822D20702D41BB126
:10515000013BF4E7002BC8D1032002B030BC7047FC
:105160004FF4807440F2011201238DF80610ADF85F
:105170000440ADF800208DF802306946A6E740F4FF
:105180000000D8E70040064030B484B0002957D072
:10519000454BD3F8002695014AD4D3F800264FF0AA
:1051A000806422F40002C3F80026C3F800460028F9
:1051B00042D048790A79D3F800410D784C78000242
:1051C00002F0070200F4E0601043C3F804068A7896
:1051D0002002120400F4E06002F4F8120243012DF0
:1051E000C3F8082653D0002D49D0022D3ED02F4BB6
:1051F0002D491C687CB34FF47A73D1F80026D00196
:105200004ED5D1F80021D2014AD5D1F80826D1F8DF
:105210000806C0F30440C2F3022210300132B4FB8E
:10522000F2F202FB00F252083AD02BB9032000E060
:10523000022004B030BC7047002004B030BC70477E
:105240004FF4E02240F201138DF80B100192ADF8FB
:10525000083001A99CE740F2E933D1F80026D401D7
:1052600048BFD1F80021013BF7D1DFE7C879104AE8
:105270001049002808BF0A46C3F80026B7E7C979D5
:105280000D4A002908BF0122C3F80026AFE7C979FB
:105290000A4A002908BF4FF00112C3F80026A6E70A
:1052A000002BC3D0013BA8E7004006403825002072
:1052B0000100830001000300010080000100810063
:1052C0001C4A1369C3F30113022B30D0032B1AD0ED
:1052D000012B11D0184B184AD3F80031D2F8040131
:1052E00013F080731CBF154B1B6810F0070002D031
:1052F000013823FA00F07047106910F0020018BF5F
:105300004FF4FA4070470C4AD2F8003313F0807320
:1053100018BFD2F80833084A18BF094BD2F8040363
:1053200010F00700E7D0013823FA00F0E3E7054B5F
:10533000186870470080044000400640382500206F
:10534000006CDC023C250020344B1B69C3F3036373
:10535000013B052B47D8DFE803F027301D46460305
:105360002E49D1F8002612F080723ED12B490B69EC
:105370000128C3F3034303F10103B2FBF3F32AD083
:10538000022805D10A6902F00F020132B3FBF2F3E1
:10539000184670472149D1F8002312F08072E5D0F9
:1053A000D1F808331E4AE1E71C4BD3F8002112F074
:1053B0008072DBD01B4B1A68D8E71849D1F800225D
:1053C00012F08072D2D0D1F80822174912F00102EF
:1053D00018BF0A46CAE70A69C2F303120132B3FBD7
:1053E000F2F3184670470022C0E7D1F8002112F00E
:1053F0008072BBD00B4B1A68002AB7D0D1F80836A0
:10540000D1F80816C1F30441C3F30223103101336C
:10541000B2FBF3F303FB01F35A08A7E70040064091
:10542000006CDC023825002000127A00284B1B6A31
:10543000C3F30363062B44D8DFE803F0223A253395
:1054400043430400224BD3F8000610F080702ED0A6
:10545000D3F8000110F0807029D01E4A106830B3D4
:10546000D3F80826D3F80836C3F304431033C2F345
:1054700002220132B0FBF2F000FB03F0400870475B
:105480000220FFF761BF124BD3F8000210F08070CA
:105490000DD0D3F80802104B10F0010018BF1846C9
:1054A00070470B4BD3F8000310F080700BD170479E
:1054B000074BD3F8000110F08070F8D0054B186846
:1054C00070470020F3E7D3F808330448704700BF63
:1054D000004006403825002000127A00006CDC02F3
:1054E0002DE9F043CA788C784D780E78631C511EF4
:1054F00005FB033706FB033C052975D8DFE801F0FF
:105500001E41147474038649D1F800E61EF0807FB2
:1055100072D1022800F0C680032800F0DD80012847
:1055200051D00020BDE8F0837D49D1F800E31EF0A2
:10553000807FEED0D1F808137A4907E07849D1F896
:105540000011C90128D5784909680909022800F025
:105550008A8003286FD00128E3D14FEA420E0EEB78
:1055600002084FEA8808DFF8C89159F808000009D6
:1055700003FB00F38B42C84480F0A5800120BDE806
:10558000F0836749D1F800E21EF0807F04D0D1F8A3
:105590000812C90700F1C180022800F083800328A7
:1055A00000F0AA800128BCD1DFF8849100214FEAE5
:1055B000420E964409EB8E09D9F808301B090CFB02
:1055C00003FC8C45DAD323042D0103F47023EDB2E0
:1055D0002B4306F00F061206334302F07062504967
:1055E00013434B6100209DE702285BD0032821D0A4
:1055F000012896D10021B0E7D1F800E11EF0807FAC
:1056000087D0DFF824E1DEF800E0BEF1000F80D0A3
:10561000D1F80896D1F80816C1F3044101F1100839
:10562000C9F3022909F10101BEFBF1F101FB08F107
:1056300049098BE700214FEA420E0EEB02084FEAC0
:105640008808DFF8F09059F80800000903FB00F320
:105650008B42C84492D3D8F804301B0907FB03F7E8
:105660008F428BD33DE002EB420E4FEA8E0EDFF805
:10567000C88058F80E00000903FB00F39942C644A5
:105680003FF67CAFDEF804301B0907FB03F7B94295
:105690003FF674AFDEF808301B090CFB03FC6145D4
:1056A0003FF66CAF23042D0103F47023EDB22B43BE
:1056B00006F00F061206334302F0706218491343D6
:1056C0008B6100202EE7D8F804301B0907FB03F795
:1056D0008F42FFF453AF6CE7DFF8589000214FEA98
:1056E000420E964409EB8E09D9F808301B090CFBD1
:1056F00003FC8C45FFF442AF23042D0103F4702317
:10570000EDB22B4306F00F061206334302F070622F
:1057100003491343CB61002004E7044916E700BFA7
:1057200000400640C0C62D003825002020A10700FB
:10573000708000001C800000C4800000214B2249C2
:105740001B681B0E17D0D1F8002312F0807218BF0F
:10575000D1F808331C4B18BF1C4AD3F8043313F09C
:10576000070302D0013B22FA03F3164A506A0130C4
:10577000B3FBF0F07047D1F8002612F0807216D01B
:10578000D1F8002112F0807211D0114B1A6872B159
:10579000D1F80836D1F80816C1F30441C3F3022347
:1057A00010310133B2FBF3F303FB01F35A08064B4C
:1057B000D3F8043613F00703D7D0013B22FA03F3E2
:1057C000D3E700BF0060074000400640006CDC02E9
:1057D000382500206B4B33F810309B0003F18043D9
:1057E00003F5CA2330B41C681A68C4F3C00402F07D
:1057F0000702A24241D31868C0F3807000283AD053
:105800001868C0F3026001380132631C052834D8DF
:10581000DFE800F05D48363333035B480129D0F8F8
:10582000001640F08E8011F0807117D0D0F8001172
:1058300011F0807112D05549096879B1D0F8084645
:10584000D0F80856C5F30445C4F3022005F110044E
:105850000130B1FBF0F101FB04F149084A48D0F8EE
:105860000406C0F3022030B1013821FA00F0B0FB89
:10587000F2F203FB02F030BC7047002030BC7047EE
:1058800041480129D0F800134ED111F0807118BFA2
:10589000D0F808133C4818BF3D49D0F80403C0F3C2
:1058A0000220E0E738480129D0F800122CD111F08D
:1058B000807106D0D0F80812364811F0010118BFE7
:1058C00001463148D0F80402C0F30220CBE7012999
:1058D0002D49D1F800110BD12B4811F0807118BF60
:1058E0002A49D0F8040118BF0968C0F30220BAE7BA
:1058F000254811F0807118BF2449D0F8040118BF61
:10590000096800F00700AEE711F0807106D0D0F80A
:105910000812204811F0010118BF01461A48D0F8BA
:10592000040200F007009EE711F0807118BFD0F864
:105930000813154818BF1649D0F8040300F00700F3
:1059400091E711F0807117D0D0F8001111F080713B
:1059500012D00E49096879B1D0F80846D0F8085637
:10596000C5F30445C4F3022005F110040130B1FB76
:10597000F0F101FB04F149080348D0F8040600F0F7
:10598000070070E7647F00000040064038250020D3
:10599000006CDC0200127A0008B5AF4B5B68C3F301
:1059A00003130F2B00F20881DFE813F03A00060121
:1059B000A6000601B800CE00F30079007D001000BB
:1059C0001B001E003D004D0076002D000120FFF75A
:1059D000BBFCA14B5B68C3F302230133B0FBF3F0C4
:1059E00008BD4FF4FA30F4E79C4BD3F8D801C0F36C
:1059F00080700028EDD003F588331868000EE5D1DB
:105A0000FFF7A2FCE5E7964B1868000EE1D0A3F57E
:105A10003833186A10F08060DBD0FFF78FFED8E7CC
:105A2000FFF704FDD5E78C4A1369C3F38103022B0A
:105A300000F0C480032B00F0C180002B0CBF4FF49A
:105A4000FA300020C5E7844B186A10F080601DD042
:105A500003F53833834A1B681B0E00F0B680D2F87A
:105A6000003313F0807318BFD2F808337D4A18BF93
:105A70007D4BD2F8040310F0070002D0013823FA5E
:105A800000F0774B5B6A0133B0FBF3F0744B1B689B
:105A90001B0E9ED040089CE7FFF712FC99E7002000
:105AA000FFF752FC95E76F4AD2F8003613F0807387
:105AB00016D0D2F8003113F0807311D06B4B1B68F5
:105AC00073B1D2F80816D2F80826C2F30442C1F323
:105AD000022110320131B3FBF1F303FB02F35B0847
:105AE000604AD2F80406C0F3022000283FF471AFE8
:105AF000013823FA00F06CE75A4B5A4AD3F80031C8
:105B0000D2F8040113F0807318BF584BC0F3022081
:105B100018BF1B6800283FF45CAFE9E7514AD2F890
:105B2000003213F0807306D0D2F80832504A13F0D6
:105B3000010318BF13464B4AD2F80402C0F30220F7
:105B400000283FF446AFD3E7434B186A10F080605B
:105B50003FF43FAF03F53833424A1B681B0E58D061
:105B6000D2F8003313F0807318BFD2F808333D4ADF
:105B700018BF3D4BD2F8040310F0070002D00138E3
:105B800023FA00F0364B5B6A0133B0FBF3F04008B8
:105B90001FE7344AD2F8003313F0807318BFD2F8ED
:105BA0000833304A18BF304BD2F80403C0F3022048
:105BB00000283FF40EAF9BE700200AE7106910F0C1
:105BC000020018BF4FF4FA4003E7D2F8003613F092
:105BD000807316D0D2F8003113F0807311D0234BAC
:105BE0001B6873B1D2F80816D2F80826C2F3044233
:105BF000C1F3022110320131B3FBF1F303FB02F3D5
:105C00005B08184AD2F8040610F007003FF439AFD9
:105C100034E7D2F8003613F0807316D0D2F8003192
:105C200013F0807311D0114B1B6873B1D2F80816B2
:105C3000D2F80826C2F30442C1F302211032013126
:105C4000B3FBF1F303FB02F35B08064AD2F8040648
:105C500010F0070096D092E7008004400050064004
:105C60000060074000400640006CDC023825002040
:105C700000127A002DE9F0410446A0B0002800F09F
:105C8000F280A34A1369C3F30363032B56D0D2F8FF
:105C9000001311F0807140F037810120FFF70EF9F9
:105CA0000546002846D19B4A9B4B01925B69DBB2BB
:105CB000042B00F0D680802B00F0D180012B0CBF8C
:105CC0000120042001A9FFF70BFC054690BB904A78
:105CD0009DF807301169C1F303618B422ED0116921
:105CE000C1F303618B4229D01169C1F303618B4277
:105CF00024D01169C1F303618B421FD01169C1F334
:105D000003618B421AD01169C1F303618B4215D034
:105D10001169C1F303618B4210D01169C1F30361B2
:105D20008B420BD01269C2F30362934206D0784BC8
:105D30001B690325284620B0BDE8F0812146E078A4
:105D4000FFF7C0F9054600286ED0734B5B69DBB2E4
:105D5000042B00F08982802B40F0D08004F13E06B5
:105D6000002DE7D1F778032F40F0E68094F8283033
:105D7000002B40F0EA82637F002B00F0CC820DF113
:105D80000408664A644B01925B69DBB2042B00F0A5
:105D90004183802B00F03A83012B0CBF01200420AB
:105DA0004146FFF79DFB0346002840F02983584AEF
:105DB0009DF807301169C1F303618B4200F05782EF
:105DC0001169C1F303618B4200F051821169C1F383
:105DD00003618B4200F04B821169C1F303618B4276
:105DE00000F045821169C1F303618B4200F03F82EC
:105DF0001169C1F303618B4200F039821169C1F36B
:105E000003618B4200F033821169C1F303618B425D
:105E100000F02D821269C2F30362934200F02782E0
:105E20003B4B1B69032585E704F11001607FFFF7F9
:105E3000B1F805460646002887D104F1200194F800
:105E40002800FFF7A1F9344B5B69DBB2042B054650
